{
    "_format": "hh-sol-artifact-1",
    "contractName": "Auth",
    "sourceName": "contracts/Auth.sol",
    "abi": [
        {
            "inputs": [
                {
                    "internalType": "address",
                    "name": "_address",
                    "type": "address"
                }
            ],
            "name": "checkIsUserLogged",
            "outputs": [
                {
                    "internalType": "bool",
                    "name": "",
                    "type": "bool"
                }
            ],
            "stateMutability": "view",
            "type": "function"
        },
        {
            "inputs": [
                {
                    "internalType": "address",
                    "name": "_address",
                    "type": "address"
                },
                {
                    "internalType": "string",
                    "name": "_password",
                    "type": "string"
                }
            ],
            "name": "login",
            "outputs": [
                {
                    "internalType": "bool",
                    "name": "",
                    "type": "bool"
                }
            ],
            "stateMutability": "nonpayable",
            "type": "function"
        },
        {
            "inputs": [
                {
                    "internalType": "address",
                    "name": "_address",
                    "type": "address"
                }
            ],
            "name": "logout",
            "outputs": [],
            "stateMutability": "nonpayable",
            "type": "function"
        },
        {
            "inputs": [
                {
                    "internalType": "address",
                    "name": "_address",
                    "type": "address"
                },
                {
                    "internalType": "string",
                    "name": "_username",
                    "type": "string"
                },
                {
                    "internalType": "string",
                    "name": "_password",
                    "type": "string"
                },
                {
                    "internalType": "string",
                    "name": "_userType",
                    "type": "string"
                }
            ],
            "name": "register",
            "outputs": [
                {
                    "internalType": "bool",
                    "name": "",
                    "type": "bool"
                }
            ],
            "stateMutability": "nonpayable",
            "type": "function"
        }
    ],
    "bytecode": "0x608060405234801561001057600080fd5b50610a66806100206000396000f3fe608060405234801561001057600080fd5b506004361061004c5760003560e01c8063063d93d814610051578063297f7b39146100815780632f19d50b146100b1578063cc51f9b9146100e1575b600080fd5b61006b600480360381019061006691906106ca565b6100fd565b6040516100789190610862565b60405180910390f35b61009b6004803603810190610096919061064d565b610327565b6040516100a89190610862565b60405180910390f35b6100cb60048036038101906100c69190610676565b61037f565b6040516100d89190610862565b60405180910390f35b6100fb60048036038101906100f6919061064d565b6104d0565b005b60003373ffffffffffffffffffffffffffffffffffffffff166000808773ffffffffffffffffffffffffffffffffffffffff1673ffffffffffffffffffffffffffffffffffffffff16815260200190815260200160002060010160009054906101000a900473ffffffffffffffffffffffffffffffffffffffff1673ffffffffffffffffffffffffffffffffffffffff16141561019957600080fd5b846000808773ffffffffffffffffffffffffffffffffffffffff1673ffffffffffffffffffffffffffffffffffffffff16815260200190815260200160002060010160006101000a81548173ffffffffffffffffffffffffffffffffffffffff021916908373ffffffffffffffffffffffffffffffffffffffff160217905550836000808773ffffffffffffffffffffffffffffffffffffffff1673ffffffffffffffffffffffffffffffffffffffff168152602001908152602001600020600201908051906020019061026e92919061052d565b50826000808773ffffffffffffffffffffffffffffffffffffffff1673ffffffffffffffffffffffffffffffffffffffff16815260200190815260200160002060030190805190602001906102c492919061052d565b50816000808773ffffffffffffffffffffffffffffffffffffffff1673ffffffffffffffffffffffffffffffffffffffff168152602001908152602001600020600401908051906020019061031a92919061052d565b5060019050949350505050565b60008060008373ffffffffffffffffffffffffffffffffffffffff1673ffffffffffffffffffffffffffffffffffffffff16815260200190815260200160002060050160009054906101000a900460ff169050919050565b6000816040516020016103929190610834565b604051602081830303815290604052805190602001206000808573ffffffffffffffffffffffffffffffffffffffff1673ffffffffffffffffffffffffffffffffffffffff1681526020019081526020016000206003016040516020016103f9919061084b565b6040516020818303038152906040528051906020012014156104c55760016000808573ffffffffffffffffffffffffffffffffffffffff1673ffffffffffffffffffffffffffffffffffffffff16815260200190815260200160002060050160006101000a81548160ff0219169083151502179055506000808473ffffffffffffffffffffffffffffffffffffffff1673ffffffffffffffffffffffffffffffffffffffff16815260200190815260200160002060050160009054906101000a900460ff1690506104ca565b600090505b92915050565b60008060008373ffffffffffffffffffffffffffffffffffffffff1673ffffffffffffffffffffffffffffffffffffffff16815260200190815260200160002060050160006101000a81548160ff02191690831515021790555050565b82805461053990610989565b90600052602060002090601f01602090048101928261055b57600085556105a2565b82601f1061057457805160ff19168380011785556105a2565b828001600101855582156105a2579182015b828111156105a1578251825591602001919060010190610586565b5b5090506105af91906105b3565b5090565b5b808211156105cc5760008160009055506001016105b4565b5090565b60006105e36105de846108ae565b61087d565b9050828152602081018484840111156105fb57600080fd5b610606848285610947565b509392505050565b60008135905061061d81610a19565b92915050565b600082601f83011261063457600080fd5b81356106448482602086016105d0565b91505092915050565b60006020828403121561065f57600080fd5b600061066d8482850161060e565b91505092915050565b6000806040838503121561068957600080fd5b60006106978582860161060e565b925050602083013567ffffffffffffffff8111156106b457600080fd5b6106c085828601610623565b9150509250929050565b600080600080608085870312156106e057600080fd5b60006106ee8782880161060e565b945050602085013567ffffffffffffffff81111561070b57600080fd5b61071787828801610623565b935050604085013567ffffffffffffffff81111561073457600080fd5b61074087828801610623565b925050606085013567ffffffffffffffff81111561075d57600080fd5b61076987828801610623565b91505092959194509250565b61077e8161091b565b82525050565b600061078f826108f3565b61079981856108fe565b93506107a9818560208601610956565b80840191505092915050565b600081546107c281610989565b6107cc81866108fe565b945060018216600081146107e757600181146107f85761082b565b60ff1983168652818601935061082b565b610801856108de565b60005b8381101561082357815481890152600182019150602081019050610804565b838801955050505b50505092915050565b60006108408284610784565b915081905092915050565b600061085782846107b5565b915081905092915050565b60006020820190506108776000830184610775565b92915050565b6000604051905081810181811067ffffffffffffffff821117156108a4576108a36109ea565b5b8060405250919050565b600067ffffffffffffffff8211156108c9576108c86109ea565b5b601f19601f8301169050602081019050919050565b60008190508160005260206000209050919050565b600081519050919050565b600081905092915050565b600061091482610927565b9050919050565b60008115159050919050565b600073ffffffffffffffffffffffffffffffffffffffff82169050919050565b82818337600083830152505050565b60005b83811015610974578082015181840152602081019050610959565b83811115610983576000848401525b50505050565b600060028204905060018216806109a157607f821691505b602082108114156109b5576109b46109bb565b5b50919050565b7f4e487b7100000000000000000000000000000000000000000000000000000000600052602260045260246000fd5b7f4e487b7100000000000000000000000000000000000000000000000000000000600052604160045260246000fd5b610a2281610909565b8114610a2d57600080fd5b5056fea2646970667358221220787bb6704222d1f5781678b3b612da8aabfe15506daf2a104fc736740030187b64736f6c63430008000033",
    "linkReferences": {},
    "deployedLinkReferences": {}
}