{
    "_format": "hh-sol-artifact-1",
    "contractName": "Certif",
    "sourceName": "contracts/Certif.sol",
    "abi": [
        {
            "inputs": [
                {
                    "internalType": "string",
                    "name": "_nom_univesrite",
                    "type": "string"
                },
                {
                    "internalType": "uint256",
                    "name": "_mat_etudiant",
                    "type": "uint256"
                },
                {
                    "internalType": "string",
                    "name": "_nom_etudiant",
                    "type": "string"
                },
                {
                    "internalType": "string",
                    "name": "_prenom_etudiant",
                    "type": "string"
                },
                {
                    "internalType": "string",
                    "name": "_date_naissance",
                    "type": "string"
                },
                {
                    "internalType": "string",
                    "name": "_lieu_naissance",
                    "type": "string"
                },
                {
                    "internalType": "string",
                    "name": "_date",
                    "type": "string"
                },
                {
                    "internalType": "string",
                    "name": "_niveau",
                    "type": "string"
                },
                {
                    "internalType": "string",
                    "name": "_domaine",
                    "type": "string"
                },
                {
                    "internalType": "string",
                    "name": "_filiere",
                    "type": "string"
                },
                {
                    "internalType": "string",
                    "name": "_specialite",
                    "type": "string"
                },
                {
                    "internalType": "string",
                    "name": "_departement",
                    "type": "string"
                }
            ],
            "name": "addDiplome",
            "outputs": [],
            "stateMutability": "nonpayable",
            "type": "function"
        },
        {
            "inputs": [],
            "name": "admin_address",
            "outputs": [
                {
                    "internalType": "address",
                    "name": "",
                    "type": "address"
                }
            ],
            "stateMutability": "view",
            "type": "function"
        },
        {
            "inputs": [],
            "name": "certifCount",
            "outputs": [
                {
                    "internalType": "uint256",
                    "name": "",
                    "type": "uint256"
                }
            ],
            "stateMutability": "view",
            "type": "function"
        },
        {
            "inputs": [
                {
                    "internalType": "uint256",
                    "name": "id",
                    "type": "uint256"
                }
            ],
            "name": "deleteDiplome",
            "outputs": [],
            "stateMutability": "nonpayable",
            "type": "function"
        },
        {
            "inputs": [
                {
                    "internalType": "uint256",
                    "name": "",
                    "type": "uint256"
                }
            ],
            "name": "diplomes",
            "outputs": [
                {
                    "internalType": "uint256",
                    "name": "id",
                    "type": "uint256"
                },
                {
                    "internalType": "string",
                    "name": "nom_univesrite",
                    "type": "string"
                },
                {
                    "internalType": "uint256",
                    "name": "mat_etudiant",
                    "type": "uint256"
                },
                {
                    "internalType": "string",
                    "name": "nom_etudiant",
                    "type": "string"
                },
                {
                    "internalType": "string",
                    "name": "prenom_etudiant",
                    "type": "string"
                },
                {
                    "internalType": "string",
                    "name": "date_naissance",
                    "type": "string"
                },
                {
                    "internalType": "string",
                    "name": "lieu_naissance",
                    "type": "string"
                },
                {
                    "internalType": "string",
                    "name": "date",
                    "type": "string"
                },
                {
                    "internalType": "string",
                    "name": "niveau",
                    "type": "string"
                },
                {
                    "internalType": "string",
                    "name": "domaine",
                    "type": "string"
                },
                {
                    "internalType": "string",
                    "name": "filiere",
                    "type": "string"
                },
                {
                    "internalType": "string",
                    "name": "specialite",
                    "type": "string"
                },
                {
                    "internalType": "string",
                    "name": "departement",
                    "type": "string"
                },
                {
                    "internalType": "string",
                    "name": "avisUniversite",
                    "type": "string"
                },
                {
                    "internalType": "string",
                    "name": "avisMinistere",
                    "type": "string"
                }
            ],
            "stateMutability": "view",
            "type": "function"
        },
        {
            "inputs": [
                {
                    "internalType": "uint256",
                    "name": "mat",
                    "type": "uint256"
                }
            ],
            "name": "getDiplome",
            "outputs": [
                {
                    "internalType": "uint256",
                    "name": "nbr",
                    "type": "uint256"
                },
                {
                    "components": [
                        {
                            "internalType": "uint256",
                            "name": "id",
                            "type": "uint256"
                        },
                        {
                            "internalType": "string",
                            "name": "nom_univesrite",
                            "type": "string"
                        },
                        {
                            "internalType": "uint256",
                            "name": "mat_etudiant",
                            "type": "uint256"
                        },
                        {
                            "internalType": "string",
                            "name": "nom_etudiant",
                            "type": "string"
                        },
                        {
                            "internalType": "string",
                            "name": "prenom_etudiant",
                            "type": "string"
                        },
                        {
                            "internalType": "string",
                            "name": "date_naissance",
                            "type": "string"
                        },
                        {
                            "internalType": "string",
                            "name": "lieu_naissance",
                            "type": "string"
                        },
                        {
                            "internalType": "string",
                            "name": "date",
                            "type": "string"
                        },
                        {
                            "internalType": "string",
                            "name": "niveau",
                            "type": "string"
                        },
                        {
                            "internalType": "string",
                            "name": "domaine",
                            "type": "string"
                        },
                        {
                            "internalType": "string",
                            "name": "filiere",
                            "type": "string"
                        },
                        {
                            "internalType": "string",
                            "name": "specialite",
                            "type": "string"
                        },
                        {
                            "internalType": "string",
                            "name": "departement",
                            "type": "string"
                        },
                        {
                            "internalType": "string",
                            "name": "avisUniversite",
                            "type": "string"
                        },
                        {
                            "internalType": "string",
                            "name": "avisMinistere",
                            "type": "string"
                        }
                    ],
                    "internalType": "struct Certif.Diplome[]",
                    "name": "diplome",
                    "type": "tuple[]"
                }
            ],
            "stateMutability": "view",
            "type": "function"
        },
        {
            "inputs": [
                {
                    "internalType": "uint256",
                    "name": "id",
                    "type": "uint256"
                },
                {
                    "internalType": "string",
                    "name": "_avis",
                    "type": "string"
                }
            ],
            "name": "updateAvisMinistere",
            "outputs": [],
            "stateMutability": "nonpayable",
            "type": "function"
        },
        {
            "inputs": [
                {
                    "internalType": "uint256",
                    "name": "id",
                    "type": "uint256"
                },
                {
                    "internalType": "string",
                    "name": "_avis",
                    "type": "string"
                }
            ],
            "name": "updateAvisUniversite",
            "outputs": [],
            "stateMutability": "nonpayable",
            "type": "function"
        }
    ],
    "bytecode": "0x6080806040523461001a57600080556111fd90816100208239f35b600080fdfe60806040526004361015610013575b600080fd5b6000803560e01c9081631a742ab8146100b6575080634f9393ee146100ad578063535a4a82146100a4578063568e38e71461009b578063768ceb9a14610092578063c465ae4d14610089578063d6d34c04146100805763f2e627721461007857600080fd5b61000e610bfa565b5061000e610ac9565b5061000e6109ff565b5061000e61091e565b5061000e610647565b5061000e610516565b5061000e6102f8565b346101b3576100c4366102c5565b91908152602060028152600d60408320019083519067ffffffffffffffff82116101a6575b6100fd826100f7855461073f565b85610cb2565b80601f8311600114610139575083948293949261012e575b50508160011b916000199060031b1c1916179055604051f35b015190508480610115565b90601f1983169561014f85600052602060002090565b9286905b88821061018e57505083600195969710610175575b505050811b019055604051f35b015160001960f88460031b161c19169055848080610168565b80600185968294968601518155019501930190610153565b6101ae6101b6565b6100e9565b80fd5b50634e487b7160e01b600052604160045260246000fd5b6101e0810190811067ffffffffffffffff8211176101ea57604052565b6101f26101b6565b604052565b6040810190811067ffffffffffffffff8211176101ea57604052565b6080810190811067ffffffffffffffff8211176101ea57604052565b90601f8019910116810190811067ffffffffffffffff8211176101ea57604052565b6040519061025e826101cd565b565b81601f8201121561000e5780359067ffffffffffffffff82116102b8575b60405192610296601f8401601f19166020018561022f565b8284526020838301011161000e57816000926020809301838601378301015290565b6102c06101b6565b61027e565b90604060031983011261000e57600435916024359067ffffffffffffffff821161000e576102f591600401610260565b90565b503461000e57600036600319011261000e576020600054604051908152f35b91908251928382526000905b848210610350575092806020939411610343575b601f01601f1916010190565b6000838284010152610337565b90602090818082850101519082860101520190610323565b90604091828101918152602090838282015284518093526060938482019083868660051b8501019701956000935b8685106103a857505050505050505090565b90919293948080979899605f198482030187528a519081518152828201516101e0808584015282016103d991610317565b87830151888301528683015190828103888401526103f691610317565b60809081840151918382039084015261040e91610317565b60a09081840151918382039084015261042691610317565b60c09081840151918382039084015261043e91610317565b60e09081840151918382039084015261045691610317565b6101009081840151918382039084015261046f91610317565b6101209081840151918382039084015261048891610317565b610140908184015191838203908401526104a191610317565b610160908184015191838203908401526104ba91610317565b610180908184015191838203908401526104d391610317565b6101a0908184015191838203908401526104ec91610317565b906101c0809301519281830391015261050491610317565b99019796956001019401929190610396565b503461000e5760208060031936011261000e576000600435610536610f69565b926001918354925b838111156105595760405180610555888883610368565b0390f35b816002610570836000526002602052604060002090565b01541480610613575b806105d9575b610592575b61058d90610c46565b61053e565b936105d161058d916105b66105b1886000526002602052604060002090565b61106e565b6105c0828a611044565b526105cb8189611044565b5061116b565b949050610584565b506105f9600d6105f3836000526002602052604060002090565b01610779565b83815191012061060761100b565b8481519101201461057f565b5061062d600e6105f3836000526002602052604060002090565b83815191012061063b61100b565b84815191012014610579565b503461000e57610656366102c5565b906000908152602060028152600e60408320019083519067ffffffffffffffff8211610732575b61068b826100f7855461073f565b80601f83116001146106c657508394829394926106bb5750508160011b916000199060031b1c1916179055604051f35b015190503880610115565b90601f198316956106dc85600052602060002090565b9286905b88821061071a5750508360019596971061070157505050811b019055604051f35b015160001960f88460031b161c19169055388080610168565b806001859682949686015181550195019301906106e0565b61073a6101b6565b61067d565b90600182811c9216801561076f575b602083101461075957565b634e487b7160e01b600052602260045260246000fd5b91607f169161074e565b906040519182600082549261078d8461073f565b9081845260019485811690816000146107fa57506001146107b7575b505061025e9250038361022f565b9093915060005260209081600020936000915b8183106107e257505061025e935082010138806107a9565b855488840185015294850194879450918301916107ca565b9550505050505060ff1916602083015261025e826040810138806107a9565b9d9a94986102f59f9d998f92996108a761090f9f9a6108996109009f989b61088b6108f19f9661087d6108e29f6108d39e8c9160406108c49f61086d906108b59e86526101e0806020880152860190610317565b9301528c820360608e0152610317565b908a820360808c0152610317565b9088820360a08a0152610317565b9086820360c0880152610317565b9084820360e0860152610317565b91610100818403910152610317565b8c81036101208e015290610317565b908a82036101408c0152610317565b908882036101608a0152610317565b90868203610180880152610317565b908482036101a0860152610317565b916101c0818403910152610317565b503461000e57602036600319011261000e576004356000526002602052604060002080546001820161094f90610779565b906002830154926003810161096390610779565b9061097060048201610779565b61097c60058301610779565b61098860068401610779565b61099460078501610779565b6109a060088601610779565b6109ac60098701610779565b916109b9600a8801610779565b936109c6600b8901610779565b956109d3600c8a01610779565b976109e0600d8b01610779565b99600e016109ed90610779565b9a6040519e8f9e8f9e6105559f610819565b503461000e57602036600319011261000e576004356000526002602052610ac7600e604060002060008155610a366001820161117b565b60006002820155610a496003820161117b565b610a556004820161117b565b610a616005820161117b565b610a6d6006820161117b565b610a796007820161117b565b610a856008820161117b565b610a916009820161117b565b610a9d600a820161117b565b610aa9600b820161117b565b610ab5600c820161117b565b610ac1600d820161117b565b0161117b565b005b503461000e5761018036600319011261000e57600467ffffffffffffffff813581811161000e57610afd9036908401610260565b9060443581811161000e57610b159036908501610260565b60643582811161000e57610b2c9036908601610260565b60843583811161000e57610b439036908701610260565b60a43584811161000e57610b5a9036908801610260565b60c43585811161000e57610b719036908901610260565b9060e43586811161000e57610b899036908a01610260565b926101043587811161000e57610ba29036908b01610260565b946101243588811161000e57610bbb9036908c01610260565b966101443589811161000e57610bd49036908d01610260565b986101643590811161000e57610ac79b610bf091369101610260565b9960243590610ec6565b503461000e57600036600319011261000e57602073ffffffffffffffffffffffffffffffffffffffff60015416604051908152f35b50634e487b7160e01b600052601160045260246000fd5b6001906000198114610c56570190565b610c5e610c2f565b0190565b60405190610c6f826101f7565b600a82527f656e20617474656e7465000000000000000000000000000000000000000000006020830152565b818110610ca6575050565b60008155600101610c9b565b9190601f8111610cc157505050565b61025e926000526020600020906020601f840160051c83019310610ced575b601f0160051c0190610c9b565b9091508190610ce0565b919091825167ffffffffffffffff8111610dc7575b610d2081610d1a845461073f565b84610cb2565b602080601f8311600114610d5c575081929394600092610d51575b50508160011b916000199060031b1c1916179055565b015190503880610d3b565b90601f19831695610d7285600052602060002090565b926000905b888210610daf57505083600195969710610d96575b505050811b019055565b015160001960f88460031b161c19169055388080610d8c565b80600185968294968601518155019501930190610d77565b610dcf6101b6565b610d0c565b600e6101c061025e9380518455610df2602082015160018601610cf7565b60408101516002850155610e0d606082015160038601610cf7565b610e1e608082015160048601610cf7565b610e2f60a082015160058601610cf7565b610e4060c082015160068601610cf7565b610e5160e082015160078601610cf7565b610e6361010082015160088601610cf7565b610e7561012082015160098601610cf7565b610e87610140820151600a8601610cf7565b610e99610160820151600b8601610cf7565b610eab610180820151600c8601610cf7565b610ebd6101a0820151600d8601610cf7565b01519101610cf7565b9a98969492909997959391600054610edd90610c46565b9a8b600055610eea610251565b9c8d8d81526020015260408d015260608c015260808b015260a08a015260c089015260e0880152610100870152610120860152610140850152610160840152610180830152610f37610c62565b6101a0830152610f45610c62565b6101c0830152610f5f906000526002602052604060002090565b9061025e91610dd4565b6040805191610f7783610213565b600383528291600091825b60608082101561100257835160209291610f9b826101cd565b86825283908082840152878784015280808401528060808401528060a08401528060c08401528060e08401528061010084015280610120840152806101408401528061016084015280610180840152806101a08401526101c0830152828901015201610f82565b50509293505050565b60405190611018826101f7565b600782527f61636365707465000000000000000000000000000000000000000000000000006020830152565b80518210156110585760209160051b010190565b634e487b7160e01b600052603260045260246000fd5b90611163600e61107c610251565b938054855261108d60018201610779565b6020860152600281015460408601526110a860038201610779565b60608601526110b960048201610779565b60808601526110ca60058201610779565b60a08601526110db60068201610779565b60c08601526110ec60078201610779565b60e08601526110fd60088201610779565b61010086015261110f60098201610779565b610120860152611121600a8201610779565b610140860152611133600b8201610779565b610160860152611145600c8201610779565b610180860152611157600d8201610779565b6101a086015201610779565b6101c0830152565b6001906001198111610c56570190565b611185815461073f565b908161118f575050565b81601f600093116001146111a1575055565b818352602083206111bd91601f0160051c810190600101610c9b565b816020812091555556fea2646970667358221220a102409b5dc8c6b3c34b2fac59bf4f57466665efd7035d008320563c9125e0c564736f6c634300080d0033",
    "linkReferences": {},
    "deployedLinkReferences": {}
}